:100000000C942A000C94D6150C9480160C942A1784
:100010000C943F000C943F000C943F000C943F0064
:100020000C943F000C943F000C943F000C943F0054
:100030000C943F000C943F000C943F000C943F0044
:100040000C943F000C943F000C943F000C943F0034
:100050000C943F0011241FBECFE5D8E0DEBFCDBF1A
:1000600010E0A0E6B0E0ECE9F0E302C005900D92EC
:10007000A639B107D9F70E944F150C944C180C946F
:100080000000EF92FF920F931F937B018C0120E001
:1000900030E040E05FE40E94ED0388238CF0C8016B
:1000A000B70120E030E040E05FE40E94B9010E9427
:1000B0004D049B01AC01205030404040504806C0E8
:1000C000C801B7010E944D049B01AC01B901CA01EE
:1000D0001F910F91FF90EF900895A0E0B0E0E3E74B
:1000E000F0E00C941518DC012B01FA019C91923080
:1000F00008F439C1EB018881823008F433C19430AF
:1001000069F4843009F02FC111969C91119789816F
:10011000981709F428C1A4E8B0E025C1843009F497
:1001200021C18230A9F4923009F01DC19A01AD01BC
:1001300088E0EA010990AE01E90109929E0181502F
:10014000C1F7E201898111969C918923818308C1BD
:10015000923009F407C112962D903C901397EB0151
:100160008A819B811496AD90BD90CD90DC901797BD
:10017000EC80FD800E811F819101281B390BB90194
:1001800037FF04C066277727621B730B6032710547
:100190000CF061C0121613066CF537014801062EEB
:1001A00004C096948794779467940A94D2F721E0D8
:1001B00030E040E050E004C0220F331F441F551FC1
:1001C0006A95D2F721503040404050402E213F21C7
:1001D00040235123211531054105510521F021E02E
:1001E00030E040E050E079018A01E628F72808294C
:1001F00019293CC0232BD1F1260E371E35014601AB
:10020000062E04C096948794779467940A94D2F744
:1002100021E030E040E050E004C0220F331F441FD3
:10022000551F6A95D2F721503040404050402A2156
:100230003B214C215D21211531054105510521F05E
:1002400021E030E040E050E059016A01A628B728DB
:10025000C828D9280BC0821593052CF01C01AA24AC
:10026000BB24650103C0EE24FF24870111969C91F5
:10027000D20111968C91981709F445C0992339F051
:10028000A80197012A193B094C095D0906C0A6017E
:1002900095012E193F09400B510B57FD08C01182E3
:1002A0003382228224833583468357831DC081E0B5
:1002B00081833382228288279927DC01821B930B5A
:1002C000A40BB50B84839583A683B7830DC0220F3F
:1002D000331F441F551F24833583468357838281F0
:1002E000938101979383828324813581468157814D
:1002F000DA01C9010197A109B1098F5F9F4FAF4F83
:10030000BF4328F30BC0918333822282EA0CFB1C8B
:100310000C1D1D1DE482F5820683178383E0808314
:10032000248135814681578157FF1AC0C901AA2708
:1003300097FDA095BA2F81709070A070B0705695FF
:10034000479537952795822B932BA42BB52B848328
:100350009583A683B7838281938101969383828359
:10036000DF0101C0D201CD01CDB7DEB7E2E10C94CF
:100370003118A0E2B0E0EFEBF1E00C9421186983B2
:100380007A838B839C832D833E834F835887E9E058
:10039000EE2EF12CEC0EFD1ECE010196B7010E944F
:1003A00076058E010F5E1F4FCE010596B8010E94A3
:1003B00076058A8991E089278A8BC701B801AE0149
:1003C000475E5F4F0E946D000E94A104A096E6E088
:1003D0000C943D18A0E2B0E0E0EFF1E00C9421189D
:1003E00069837A838B839C832D833E834F835887D5
:1003F000F9E0EF2EF12CEC0EFD1ECE010196B701B7
:100400000E9476058E010F5E1F4FCE010596B80142
:100410000E947605C701B801AE01475E5F4F0E949A
:100420006D000E94A104A096E6E00C943D18A0E2A5
:10043000B0E0EDE1F2E00C94151869837A838B83C8
:100440009C832D833E834F835887CE010196BE0146
:10045000675F7F4F0E947605CE010596BE016F5EF5
:100460007F4F0E9476059985923088F08989823085
:10047000C8F0943019F4823051F404C0843029F467
:10048000923081F484E890E0C6C0923049F420E0D4
:100490009A858A89981321E02A87CE010996BBC0E4
:1004A000823049F420E09A858A89981321E02A8BCA
:1004B000CE014196B0C02D843E844F8458886D880B
:1004C0007E888F88988CEE24FF248701AA24BB2481
:1004D000650140E050E060E070E0E0E0F0E0C10184
:1004E00081709070892BE9F0E60CF71C081D191D2E
:1004F0009A01AB012A0D3B1D4C1D5D1D80E090E073
:10050000A0E0B0E0E614F7040805190520F481E046
:1005100090E0A0E0B0E0BA01A901480F591F6A1F9E
:100520007B1FAA0CBB1CCC1CDD1C97FE08C081E005
:1005300090E0A0E0B0E0A82AB92ACA2ADB2A3196C6
:10054000E032F10549F0660C771C881C991C569422
:10055000479437942794C3CFFA85EA892B893C893D
:100560008B859C85280F391F2E5F3F4F17C0CA010E
:1005700081709070892B61F016950795F794E79438
:1005800080E090E0A0E0B0E8E82AF92A0A2B1B2BD3
:1005900076956795579547952F5F3F4F77FDE7CF46
:1005A0000CC0440F551F661F771F17FD4160EE0CEE
:1005B000FF1C001F111F21503040403090E05907B0
:1005C00090E0690790E4790760F32B8F3C8FDB01A3
:1005D000CA018F779070A070B07080349105A1052A
:1005E000B10561F447FD0AC0E114F10401051105EC
:1005F00029F0405C5F4F6F4F7F4F40781A8EFE1797
:1006000011F081E08A8F4D8F5E8F6F8F78A383E02A
:10061000898FCE0149960E94A104A096E2E10C9434
:100620003118A8E1B0E0E7E1F3E00C941D1869830C
:100630007A838B839C832D833E834F835887B9E0D5
:10064000EB2EF12CEC0EFD1ECE010196B7010E949F
:1006500076058E010F5E1F4FCE010596B8010E94F0
:1006600076052985223008F47EC03989323010F4AD
:10067000B8017CC08A859A8989278A87243011F03D
:10068000223031F4231709F06EC064E870E06EC0C8
:10069000343039F41D861E861F86188A1C861B86F8
:1006A00004C0323021F484E08987B7015FC02B8514
:1006B0003C858B899C89281B390B3C872B87ED84D3
:1006C000FE840F851889AD88BE88CF88D88CEA143F
:1006D000FB040C051D0540F4EE0CFF1C001F111F50
:1006E000215030403C872B8720E030E040E050E054
:1006F00080E090E0A0E0B0E460E070E0EA14FB0489
:100700000C051D0540F0282B392B4A2B5B2BEA18D2
:10071000FB080C091D09B695A79597958795EE0CD2
:10072000FF1C001F111F6F5F7F4F6F31710531F785
:10073000DA01C9018F779070A070B0708034910594
:10074000A105B10561F427FD0AC0E114F10401051A
:10075000110529F0205C3F4F4F4F5F4F20782D87C8
:100760003E874F87588BBE01675F7F4FCB010E944A
:10077000A1046896EAE00C943918A8E1B0E0E3EC33
:10078000F3E00C94211869837A838B839C832D83F7
:100790003E834F83588789E0E82EF12CEC0EFD1E36
:1007A000CE010196B7010E9476058E010F5E1F4FA4
:1007B000CE010596B8010E9476058985823040F009
:1007C0008989823028F0C701B8010E94EE0501C076
:1007D0008FEF6896E6E00C943D18A8E1B0E0E3EFF7
:1007E000F3E00C94211869837A838B839C832D8397
:1007F0003E834F83588789E0E82EF12CEC0EFD1ED6
:10080000CE010196B7010E9476058E010F5E1F4F43
:10081000CE010596B8010E9476058985823040F0A8
:100820008989823028F0C701B8010E94EE0501C015
:100830008FEF6896E6E00C943D18A8E1B0E0E3E2A3
:10084000F4E00C94211869837A838B839C832D8335
:100850003E834F83588789E0E82EF12CEC0EFD1E75
:10086000CE010196B7010E9476058E010F5E1F4FE3
:10087000CE010596B8010E9476058985823040F048
:100880008989823028F0C701B8010E94EE0501C0B5
:1008900081E06896E6E00C943D18ACE0B0E0E3E55A
:1008A000F4E00C94251869837A838B839C83CE01B2
:1008B0000196BE016B5F7F4F0E9476058D8182306D
:1008C00061F1823050F1843021F48E81882351F11E
:1008D0002EC02F81388537FD20C06E812F31310524
:1008E0001CF06623F9F023C08EE190E0821B930B8D
:1008F00029853A854B855C8504C056954795379583
:1009000027958A95D2F76623B1F05095409530959A
:1009100021953F4F4F4F5F4F0EC020E030E040E049
:1009200050E009C02FEF3FEF4FEF5FE704C020E03A
:1009300030E040E050E8B901CA012C96E2E00C94A6
:100940004118DF92EF92FF920F931F93FC01E48016
:10095000F58006811781D1808081823048F480E063
:1009600090E0A0E1B0E0E82AF92A0A2B1B2BA5C0F1
:10097000843009F49FC0823021F4EE24FF248701E3
:1009800005C0E114F1040105110519F4E0E0F0E0FF
:1009900096C0628173819FEF623879070CF05BC06B
:1009A00022E83FEF261B370B2A3131052CF020E0DF
:1009B00030E040E050E02AC0B801A701022E04C098
:1009C00076956795579547950A94D2F781E090E020
:1009D000A0E0B0E004C0880F991FAA1FBB1F2A9592
:1009E000D2F70197A109B1098E219F21A023B1233C
:1009F0000097A105B10521F081E090E0A0E0B0E012
:100A00009A01AB01282B392B4A2B5B2BDA01C90148
:100A10008F779070A070B07080349105A105B105FA
:100A200039F427FF09C0205C3F4F4F4F5F4F04C090
:100A3000215C3F4F4F4F5F4FE0E0F0E02030A0E0FF
:100A40003A07A0E04A07A0E45A0710F0E1E0F0E01E
:100A500079018A0127C06038710564F5FB01E1580E
:100A6000FF4FD801C7018F779070A070B0708034AD
:100A70009105A105B10539F4E7FE0DC080E490E0D1
:100A8000A0E0B0E004C08FE390E0A0E0B0E0E80EAA
:100A9000F91E0A1F1B1F17FF05C016950795F7942F
:100AA000E794319687E016950795F794E7948A9531
:100AB000D1F705C0EE24FF248701EFEFF0E06E2FA1
:100AC000679566276795902F9F77D794DD24D794F5
:100AD0008E2F8695492F462B582F5D29B701CA01C5
:100AE0001F910F91FF90EF90DF900895FC01DB01C3
:100AF000408151812281622F6F7770E0221F22276F
:100B0000221F9381892F880F822B282F30E0991F75
:100B10009927991F11969C93119721153105A9F5D5
:100B2000411551056105710511F482E037C082E875
:100B30009FEF13969C938E9312979A01AB0167E0F7
:100B4000220F331F441F551F6A95D1F783E08C9302
:100B50000DC0220F331F441F551F12968D919C917B
:100B60001397019713969C938E931297203080E0F1
:100B7000380780E0480780E4580758F314962D930F
:100B80003D934D935C93179708952F3F310579F46A
:100B9000411551056105710519F484E08C930895A0
:100BA00064FF03C081E08C9312C01C9210C02F57C9
:100BB000304013963C932E93129783E08C9387E0FA
:100BC000440F551F661F771F8A95D1F770641496DE
:100BD0004D935D936D937C93179708951F93DC015C
:100BE000FB019C91923008F447C08081823008F468
:100BF00043C0943051F411961C91843099F5818151
:100C0000682F70E0611B71093FC0843021F0923081
:100C100031F48230B9F18181882389F12DC0119698
:100C20001C9111978230F1F081811817D9F4129636
:100C30002D913C911397828193818217930794F0B1
:100C400028173907BCF014968D919D910D90BC9199
:100C5000A02D2481358146815781281739074A07FD
:100C60005B0718F4112341F00AC082179307A40709
:100C7000B50740F4112319F061E070E005C06FEF93
:100C80007FEF02C060E070E0CB011F910895DF9319
:100C9000CF93CDB7DEB7AFE5B0E0EFE5F0E0808110
:100CA00080688C93CF91DF910895DF93CF93CDB778
:100CB000DEB7AFE5B0E0EFE5F0E080818F778C93B1
:100CC000CF91DF910895DF93CF9300D00F92CDB7EE
:100CD000DEB78983ABE5B0E0EBE5F0E080818064CE
:100CE0008C938981282F30E03B832A838A819B81E2
:100CF0008130910521F12A813B81223031052CF48C
:100D00008A819B81009761F046C02A813B81223015
:100D1000310521F18A819B818330910571F13BC0BE
:100D2000A5E5B0E0E5E5F0E080818E7F8C93A5E558
:100D3000B0E0E5E5F0E080818D7F8C932CC0A5E5E7
:100D4000B0E0E5E5F0E0808181608C93A5E5B0E05E
:100D5000E5E5F0E080818D7F8C931DC0A5E5B0E0D6
:100D6000E5E5F0E080818E7F8C93A5E5B0E0E5E5D8
:100D7000F0E0808182608C930EC0A5E5B0E0E5E5EF
:100D8000F0E0808181608C93A5E5B0E0E5E5F0E0DE
:100D9000808182608C930F900F900F90CF91DF91A4
:100DA0000895DF93CF9300D00F92CDB7DEB789833C
:100DB000ABE5B0E0EBE5F0E0808180688C93898161
:100DC000282F30E03B832A838A819B8181309105E3
:100DD00021F12A813B81223031052CF48A819B81CB
:100DE000009761F046C02A813B812230310521F114
:100DF0008A819B818330910571F13BC0A5E5B0E00C
:100E0000E5E5F0E080818B7F8C93A5E5B0E0E5E53A
:100E1000F0E08081877F8C932CC0A5E5B0E0E5E50C
:100E2000F0E0808184608C93A5E5B0E0E5E5F0E03A
:100E30008081877F8C931DC0A5E5B0E0E5E5F0E0FB
:100E400080818B7F8C93A5E5B0E0E5E5F0E08081C3
:100E500088608C930EC0A5E5B0E0E5E5F0E0808108
:100E600084608C93A5E5B0E0E5E5F0E080818860E2
:100E70008C930F900F900F90CF91DF910895DF9397
:100E8000CF9300D00F92CDB7DEB78983ABE5B0E04A
:100E9000EBE5F0E0808180628C938981282F30E03F
:100EA0003B832A838A819B818230910531F02A819C
:100EB0003B812330310549F00FC0A4E5B0E0E4E503
:100EC000F0E080818F7B8C9307C0A4E5B0E0E4E57F
:100ED000F0E0808180648C930F900F900F90CF9101
:100EE000DF910895DF93CF93CDB7DEB7ABE5B0E0E8
:100EF000EBE5F0E080818F7B8C93CF91DF910895BB
:100F0000DF93CF93CDB7DEB7ABE5B0E0EBE5F0E034
:100F100080818F778C93CF91DF910895DF93CF936A
:100F2000CDB7DEB7ABE5B0E0EBE5F0E080818F7DDB
:100F30008C93CF91DF910895DF93CF93CDB7DEB738
:100F4000AAE5B0E0EAE5F0E0808180648C93CF917F
:100F5000DF910895DF93CF93CDB7DEB7AAE5B0E078
:100F6000EAE5F0E0808180688C93CF91DF9108956D
:100F7000DF93CF93CDB7DEB7AAE5B0E0EAE5F0E0C6
:100F8000808180628C93CF91DF910895DF93CF931E
:100F900000D000D0CDB7DEB789836A838981282F3E
:100FA00030E03C832B838B819C818130910589F1DA
:100FB0002B813C81223031052CF48B819C81009760
:100FC00069F074C02B813C8122303105E1F18B81C5
:100FD0009C818330910509F450C068C08A818130BA
:100FE00029F4EAE3F0E08FEF808360C08A818823F0
:100FF00021F4EAE3F0E0108259C08A81823009F0DE
:1010000055C0EAE3F0E01082EBE3F0E08FEF80837D
:101010004DC08A81813029F4E7E3F0E08FEF8083CF
:1010200045C08A81882321F4E7E3F0E010823EC0C6
:101030008A818230D9F5E7E3F0E01082E8E3F0E05E
:101040008FEF808333C08A81813029F4E4E3F0E0BC
:101050008FEF80832BC08A81882321F4E4E3F0E0C2
:10106000108224C08A81823009F5E4E3F0E0108226
:10107000E5E3F0E08FEF808319C08A81813029F4A5
:10108000E1E3F0E08FEF808311C08A81882321F4AF
:10109000E1E3F0E010820AC08A81823039F4E1E3B2
:1010A000F0E01082E2E3F0E08FEF80830F900F908A
:1010B0000F900F90CF91DF910895DF93CF9300D0E1
:1010C00000D0CDB7DEB789836A838981282F30E0CD
:1010D0003C832B838B819C8181309105D1F02B81C6
:1010E0003C81223031052CF48B819C81009761F08A
:1010F0001EC02B813C812230310581F08B819C8187
:101100008330910581F013C0EBE3F0E08A818083A6
:101110000EC0EBE3F0E08A81808309C0EBE3F0E0EE
:101120008A81808304C0EBE3F0E08A8180830F90A2
:101130000F900F900F90CF91DF910895DF93CF9391
:10114000CDB7DEB729970FB6F894DEBF0FBECDBF7F
:1011500089836A834B838B81813009F06FC08981D9
:10116000282F30E039872887888599858130910537
:1011700049F128853985223031052CF488859985F7
:10118000009761F090C1288539852230310571F1D1
:101190008885998583309105E9F185C1AAE3B0E09E
:1011A000EAE3F0E08081482F8A81282F30E081E057
:1011B00090E0022E02C0880F991F0A94E2F7842B58
:1011C0008C9371C1A7E3B0E0E7E3F0E08081482FA2
:1011D0008A81282F30E081E090E0022E02C0880F43
:1011E000991F0A94E2F7842B8C935DC1A4E3B0E0CD
:1011F000E4E3F0E08081482F8A81282F30E081E00D
:1012000090E0022E02C0880F991F0A94E2F7842B07
:101210008C9349C1A1E3B0E0E1E3F0E08081482F85
:101220008A81282F30E081E090E0022E02C0880FF2
:10123000991F0A94E2F7842B8C9335C18B818230FD
:1012400009F0BEC08981282F30E03F832E838E8134
:101250009F818130910509F43EC02E813F8122306B
:1012600031052CF48E819F81009771F01CC12E8175
:101270003F812230310509F455C08E819F81833032
:10128000910509F476C00FC1AAE3B0E0EAE3F0E00B
:101290008081482F8A81282F30E081E090E002C0D1
:1012A000880F991F2A95E2F7809584238C93ABE3EE
:1012B000B0E0EBE3F0E08081482F8A81282F30E016
:1012C00081E090E0022E02C0880F991F0A94E2F795
:1012D000842B8C93E8C0A7E3B0E0E7E3F0E08081E3
:1012E000482F8A81282F30E081E090E002C0880FEB
:1012F000991F2A95E2F7809584238C93A8E3B0E0A8
:10130000E8E3F0E08081482F8A81282F30E081E0F7
:1013100090E0022E02C0880F991F0A94E2F7842BF6
:101320008C93C1C0A4E3B0E0E4E3F0E08081482FF7
:101330008A81282F30E081E090E002C0880F991F59
:101340002A95E2F7809584238C93A5E3B0E0E5E34A
:10135000F0E08081482F8A81282F30E081E090E002
:10136000022E02C0880F991F0A94E2F7842B8C93F7
:101370009AC0A1E3B0E0E1E3F0E08081482F8A81E8
:10138000282F30E081E090E002C0880F991F2A9555
:10139000E2F7809584238C93A2E3B0E0E2E3F0E0EF
:1013A0008081482F8A81282F30E081E090E0022E52
:1013B00002C0880F991F0A94E2F7842B8C9373C0A4
:1013C0008981282F30E03D832C838C819D81813061
:1013D000910559F12C813D81223031052CF48C810D
:1013E0009D81009769F05FC02C813D8122303105DD
:1013F00089F18C819D818330910509F440C053C0EF
:10140000AAE3B0E0EAE3F0E08081482F8A81282F48
:1014100030E081E090E0022E02C0880F991F0A940C
:10142000E2F7809584238C933EC0A7E3B0E0E7E326
:10143000F0E08081482F8A81282F30E081E090E021
:10144000022E02C0880F991F0A94E2F78095842328
:101450008C9329C0A4E3B0E0E4E3F0E08081482F5E
:101460008A81282F30E081E090E0022E02C0880FB0
:10147000991F0A94E2F7809584238C9314C0A1E30A
:10148000B0E0E1E3F0E08081482F8A81282F30E04E
:1014900081E090E0022E02C0880F991F0A94E2F7C3
:1014A000809584238C9329960FB6F894DEBF0FBEE7
:1014B000CDBFCF91DF910895DF93CF93CDB7DEB746
:1014C00027970FB6F894DEBF0FBECDBF89836A831E
:1014D0004B838B81813009F06FC08981282F30E0E8
:1014E0003F832E838E819F818130910549F12E812A
:1014F0003F81223031052CF48E819F81009761F06D
:10150000CEC02E813F812230310571F18E819F81C5
:1015100083309105E9F1C3C0ABE3B0E0EBE3F0E069
:101520008081482F8A81282F30E081E090E0022ED0
:1015300002C0880F991F0A94E2F7842B8C93AFC0E6
:10154000A8E3B0E0E8E3F0E08081482F8A81282F0B
:1015500030E081E090E0022E02C0880F991F0A94CB
:10156000E2F7842B8C939BC0A5E3B0E0E5E3F0E0C9
:101570008081482F8A81282F30E081E090E0022E80
:1015800002C0880F991F0A94E2F7842B8C9387C0BE
:10159000A2E3B0E0E2E3F0E08081482F8A81282FC7
:1015A00030E081E090E0022E02C0880F991F0A947B
:1015B000E2F7842B8C9373C08981282F30E03D8320
:1015C0002C838C819D818130910559F12C813D8145
:1015D000223031052CF48C819D81009769F05FC029
:1015E0002C813D812230310589F18C819D818330B0
:1015F000910509F440C053C0ABE3B0E0EBE3F0E089
:101600008081482F8A81282F30E081E090E0022EEF
:1016100002C0880F991F0A94E2F7809584238C9367
:101620003EC0A8E3B0E0E8E3F0E08081482F8A8183
:10163000282F30E081E090E0022E02C0880F991F31
:101640000A94E2F7809584238C9329C0A5E3B0E047
:10165000E5E3F0E08081482F8A81282F30E081E0A7
:1016600090E0022E02C0880F991F0A94E2F780953D
:1016700084238C9314C0A2E3B0E0E2E3F0E0808125
:10168000482F8A81282F30E081E090E0022E02C0AE
:10169000880F991F0A94E2F7809584238C932796EC
:1016A0000FB6F894DEBF0FBECDBFCF91DF91089586
:1016B000DF93CF9300D000D0CDB7DEB78A838A8185
:1016C000282F30E03C832B838B819C8181309105D6
:1016D000D1F02B813C81223031052CF48B819C810F
:1016E000009761F01EC02B813C812230310581F0D2
:1016F0008B819C818330910581F013C0E9E3F0E098
:10170000808189830EC0E9E3F0E08081898309C08C
:10171000E9E3F0E08081898304C0E9E3F0E08081BF
:10172000898389810F900F900F900F90CF91DF9157
:101730000895DF93CF9300D000D00F92CDB7DEB7DE
:101740008A836B838A81282F30E03D832C834C81F0
:101750005D814130510541F18C819D81823091053F
:1017600034F42C813D812115310561F052C04C814A
:101770005D814230510551F18C819D81833091050D
:10178000B9F147C0E9E3F0E08081282F30E08B8198
:10179000882F90E0A90102C0559547958A95E2F7F8
:1017A000CA018170898335C0E6E3F0E08081282F8B
:1017B00030E08B81882F90E0A90102C055954795B4
:1017C0008A95E2F7CA018170898323C0E3E3F0E0E0
:1017D0008081282F30E08B81882F90E0A90102C002
:1017E000559547958A95E2F7CA018170898311C0A2
:1017F000E0E3F0E08081282F30E08B81882F90E0BB
:10180000A90102C0559547958A95E2F7CA018170F2
:10181000898389810F900F900F900F900F90CF9137
:10182000DF910895DF93CF9300D00F92CDB7DEB74D
:1018300069837A838B8389819A81692F40E00E9432
:101840009E088B81813031F489819A81692F42E031
:101850000E949E080F900F900F90CF91DF910895F6
:10186000DF93CF9300D00F92CDB7DEB769837A8331
:101870008B8389819A81692F0E94990B0F900F9019
:101880000F90CF91DF9108950F931F93DF93CF9324
:10189000CDB7DEB7C858D0400FB6F894DEBF0FBE44
:1018A000CDBF80E061E00E94C607FE01EB57FF4F0D
:1018B00080E090E0A8E4B2E480839183A283B383C4
:1018C0008E010F571F4FFE01EB57FF4F6081718153
:1018D0008281938120E030E04AEF54E40E941702B5
:1018E000DC01CB01F80180839183A283B383FE01E5
:1018F000EF57FF4F608171818281938120E030E05A
:1019000040E85FE30E941D04882344F4FE01E1588F
:10191000FF4F81E090E09183808364C0FE01EF5728
:10192000FF4F608171818281938120E03FEF4FE71B
:1019300057E40E94BD0318160CF043C0FE01EB579C
:10194000FF4F608171818281938120E030E040E22D
:1019500051E40E941702DC01CB018E0101581F4F98
:10196000BC01CD010E944100DC01CB01F801918353
:1019700080831FC0FE01E358FF4F88EC90E0918305
:101980008083FE01E358FF4F808191810197F1F739
:10199000FE01E358FF4F91838083DE01A158BF4FC2
:1019A000FE01E158FF4F80819181019711969C9330
:1019B0008E93FE01E158FF4F808191810097D1F60F
:1019C00027C08E0101581F4FFE01EF57FF4F608166
:1019D0007181828193810E944100DC01CB01F80179
:1019E00091838083DE01A558BF4FFE01E158FF4F70
:1019F000808191818D939C93FE01E558FF4F8081FA
:101A000091810197F1F7FE01E558FF4F91838083A3
:101A100080E064E040E00E945C0AFE01E958FF4F6C
:101A200080E090E0A0E8BFE380839183A283B3834A
:101A30008E010D581F4FFE01E958FF4F60817181E3
:101A4000828193812BEA3AEA4AE250E40E9417022B
:101A5000DC01CB01F80180839183A283B383FE0173
:101A6000ED58FF4F608171818281938120E030E0E9
:101A700040E85FE30E941D04882334F4FE01EE5821
:101A8000FF4F81E08083E0C0FE01ED58FF4F608191
:101A900071818281938120E030E04FE753E40E941E
:101AA000BD0318160CF0C0C0FE01E958FF4F60815D
:101AB00071818281938120E030E04AE754E40E9402
:101AC0001103DC01CB01FE01E259FF4F80839183BA
:101AD000A283B3838E0106591F4FFE01E259FF4FC7
:101AE000608171818281938120E030E04AEF54E48B
:101AF0000E941702DC01CB01F80180839183A2834D
:101B0000B383FE01E659FF4F608171818281938129
:101B100020E030E040E85FE30E941D04882344F4A5
:101B2000FE01E859FF4F81E090E09183808364C01B
:101B3000FE01E659FF4F608171818281938120E02F
:101B40003FEF4FE757E40E94BD0318160CF043C067
:101B5000FE01E259FF4F608171818281938120E013
:101B600030E040E251E40E941702DC01CB018E011B
:101B700008591F4FBC01CD010E944100DC01CB017F
:101B8000F801918380831FC0FE01EA59FF4F88EC62
:101B900090E091838083FE01EA59FF4F808191811B
:101BA0000197F1F7FE01EA59FF4F91838083DE012F
:101BB000A859BF4FFE01E859FF4F808191810197DD
:101BC00011969C938E93FE01E859FF4F808191817D
:101BD0000097D1F64BC08E0108591F4FFE01E65900
:101BE000FF4F60817181828193810E944100DC01FD
:101BF000CB01F80191838083DE01AC59BF4FFE0118
:101C0000E859FF4F8081918111969C938E93FE013C
:101C1000EC59FF4F808191810197F1F7FE01EC595A
:101C2000FF4F9183808322C08E010E581F4FFE010B
:101C3000ED58FF4F60817181828193810E94410044
:101C4000DC01CB01F8018083DE01AD59BF4FFE01FD
:101C5000EE58FF4F80818C93FE01ED59FF4F80813C
:101C60008A95F1F7FE01ED59FF4F808383E00E94D2
:101C70000D12FE01E15AFF4F80E090E0A0EAB0E4CF
:101C800080839183A283B3838E01055A1F4FFE0187
:101C9000E15AFF4F608171818281938120E030E0C1
:101CA0004AEF54E40E941702DC01CB01F801808363
:101CB0009183A283B383FE01E55AFF4F6081718156
:101CC0008281938120E030E040E85FE30E941D04C0
:101CD000882344F4FE01E75AFF4F81E090E09183AE
:101CE000808364C0FE01E55AFF4F6081718182816B
:101CF000938120E03FEF4FE757E40E94BD031816A1
:101D00000CF043C0FE01E15AFF4F60817181828176
:101D1000938120E030E040E251E40E941702DC01B0
:101D2000CB018E01075A1F4FBC01CD010E9441001B
:101D3000DC01CB01F801918380831FC0FE01E95AC9
:101D4000FF4F88EC90E091838083FE01E95AFF4FBA
:101D5000808191810197F1F7FE01E95AFF4F91834C
:101D60008083DE01A75ABF4FFE01E75AFF4F8081F3
:101D70009181019711969C938E93FE01E75AFF4F34
:101D8000808191810097D1F627C08E01075A1F4F9D
:101D9000FE01E55AFF4F60817181828193810E942B
:101DA0004100DC01CB01F80191838083DE01AB5A55
:101DB000BF4FFE01E75AFF4F808191818D939C9325
:101DC000FE01EB5AFF4F808191810197F1F7FE01EF
:101DD000EB5AFF4F9183808383E00E940D12FE0136
:101DE000EF5AFF4F80E090E0A0EAB0E48083918357
:101DF000A283B3838E01035B1F4FFE01EF5AFF4F97
:101E0000608171818281938120E030E04AEF54E467
:101E10000E941702DC01CB01F80180839183A28329
:101E2000B383FE01E35BFF4F608171818281938107
:101E300020E030E040E85FE30E941D04882344F482
:101E4000FE01E55BFF4F81E090E09183808364C0F9
:101E5000FE01E35BFF4F608171818281938120E00D
:101E60003FEF4FE757E40E94BD0318160CF043C044
:101E7000FE01EF5AFF4F608171818281938120E0E2
:101E800030E040E251E40E941702DC01CB018E01F8
:101E9000055B1F4FBC01CD010E944100DC01CB015D
:101EA000F801918380831FC0FE01E75BFF4F88EC40
:101EB00090E091838083FE01E75BFF4F80819181F9
:101EC0000197F1F7FE01E75BFF4F91838083DE010D
:101ED000A55BBF4FFE01E55BFF4F808191810197BC
:101EE00011969C938E93FE01E55BFF4F808191815B
:101EF0000097D1F627C08E01055B1F4FFE01E35B03
:101F0000FF4F60817181828193810E944100DC01D9
:101F1000CB01F80191838083DE01A95BBF4FFE01F5
:101F2000E55BFF4F808191818D939C93FE01E95B7E
:101F3000FF4F808191810197F1F7FE01E95BFF4F2F
:101F40009183808383E00E940D12FE01ED5BFF4FC1
:101F500080E090E0A0EAB0E480839183A283B38321
:101F60008E01015C1F4FFE01ED5BFF4F60817181AF
:101F70008281938120E030E04AEF54E40E9417020E
:101F8000DC01CB01F80180839183A283B383FE013E
:101F9000FF96608171818281938120E030E040E88A
:101FA0005FE30E941D0488232CF481E090E09EAF43
:101FB0008DAF46C0FE01FF96608171818281938161
:101FC00020E03FEF4FE757E40E94BD03181664F589
:101FD000FE01ED5BFF4F608171818281938120E082
:101FE00030E040E251E40E941702DC01CB01BC0169
:101FF000CD010E944100DC01CB019EAF8DAF0FC02F
:1020000088EC90E09CAF8BAF8BAD9CAD0197F1F766
:102010009CAF8BAF8DAD9EAD01979EAF8DAF8DAD5B
:102020009EAD009769F716C0FE01FF966081718131
:10203000828193810E944100DC01CB019EAF8DAF74
:102040008DAD9EAD9AAF89AF89AD9AAD0197F1F78D
:102050009AAF89AF82E00E940D1280E20E94CD13F8
:1020600080E090E0A0E8BFE38DAB9EABAFABB8AF34
:102070006DA97EA98FA998AD20E030E04AEF54E425
:102080000E941702DC01CB0189AB9AABABABBCABB6
:1020900069A97AA98BA99CA920E030E040E85FE318
:1020A0000E941D0488232CF481E090E098AB8FA758
:1020B0003FC069A97AA98BA99CA920E03FEF4FE70F
:1020C00057E40E94BD0318164CF56DA97EA98FA98F
:1020D00098AD20E030E040E251E40E941702DC01BC
:1020E000CB01BC01CD010E944100DC01CB0198ABCA
:1020F0008FA70FC088EC90E09EA78DA78DA59EA509
:102100000197F1F79EA78DA78FA598A9019798AB86
:102110008FA78FA598A9009769F714C069A97AA914
:102120008BA99CA90E944100DC01CB0198AB8FA731
:102130008FA598A99CA78BA78BA59CA50197F1F7C4
:102140009CA78BA78CE00E94CD1380E090E0A0E8D4
:10215000BFE38FA398A7A9A7BAA76FA178A589A560
:102160009AA520E030E04AEF54E40E941702DC0117
:10217000CB018BA39CA3ADA3BEA36BA17CA18DA11E
:102180009EA120E030E040E85FE30E941D04882328
:102190002CF481E090E09AA389A33FC06BA17CA1BD
:1021A0008DA19EA120E03FEF4FE757E40E94BD03C1
:1021B00018164CF56FA178A589A59AA520E030E006
:1021C00040E251E40E941702DC01CB01BC01CD01C9
:1021D0000E944100DC01CB019AA389A30FC088ECC7
:1021E00090E098A38F8F8F8D98A10197F1F798A316
:1021F0008F8F89A19AA101979AA389A389A19AA1F6
:10220000009769F714C06BA17CA18DA19EA10E94CB
:102210004100DC01CB019AA389A389A19AA19E8FD9
:102220008D8F8D8D9E8D0197F1F79E8F8D8F81E023
:102230000E94CD1380E090E0A0E0B0E4898F9A8FF7
:10224000AB8FBC8F698D7A8D8B8D9C8D20E030E0BB
:102250004AEF54E40E941702DC01CB018D8B9E8B68
:10226000AF8BB88F6D897E898F89988D20E030E0A3
:1022700040E85FE30E941D0488232CF481E090E095
:102280009C8B8B8B3FC06D897E898F89988D20E0D8
:102290003FEF4FE757E40E94BD0318164CF5698DD8
:1022A0007A8D8B8D9C8D20E030E040E251E40E94DD
:1022B0001702DC01CB01BC01CD010E944100DC0111
:1022C000CB019C8B8B8B0FC088EC90E09A8B898B19
:1022D00089899A890197F1F79A8B898B8B899C89D7
:1022E00001979C8B8B8B8B899C89009769F714C015
:1022F0006D897E898F89988D0E944100DC01CB0118
:102300009C8B8B8B8B899C89988B8F878F859889E9
:102310000197F1F7988B8F8786E00E94CD1380E0BC
:1023200090E0A0E8BFE38B879C87AD87BE876B8575
:102330007C858D859E8520E030E04AEF54E40E9444
:102340001702DC01CB018F839887A987BA876F8139
:10235000788589859A8520E030E040E85FE30E9437
:102360001D0488232CF481E090E09E838D833FC080
:102370006F81788589859A8520E03FEF4FE757E4A4
:102380000E94BD0318164CF56B857C858D859E8556
:1023900020E030E040E251E40E941702DC01CB0172
:1023A000BC01CD010E944100DC01CB019E838D83E5
:1023B0000FC088EC90E09C838B838B819C8101977C
:1023C000F1F79C838B838D819E8101979E838D8302
:1023D0008D819E81009769F714C06F81788589850A
:1023E0009A850E944100DC01CB019E838D838D8103
:1023F0009E819A83898389819A810197F1F79A83D3
:102400008983C857DF4F0FB6F894DEBF0FBECDBF2C
:10241000CF91DF911F910F910895DF93CF93CDB7A7
:10242000DEB76D970FB6F894DEBF0FBECDBF8D8FB0
:1024300080E065E040E00E945C0A80E090E0A0E877
:10244000BFE3898F9A8FAB8FBC8F698D7A8D8B8D0F
:102450009C8D20E030E04AEF54E40E941702DC013A
:10246000CB018D8B9E8BAF8BB88F6D897E898F89C9
:10247000988D20E030E040E85FE30E941D0488234F
:102480002CF481E090E09C8B8B8B3FC06D897E8922
:102490008F89988D20E03FEF4FE757E40E94BD03FE
:1024A00018164CF5698D7A8D8B8D9C8D20E030E06F
:1024B00040E251E40E941702DC01CB01BC01CD01D6
:1024C0000E944100DC01CB019C8B8B8B0FC088EC00
:1024D00090E09A8B898B89899A890197F1F79A8B79
:1024E000898B8B899C8901979C8B8B8B8B899C8991
:1024F000009769F714C06D897E898F89988D0E9435
:102500004100DC01CB019C8B8B8B8B899C89988B48
:102510008F878F8598890197F1F7988B8F878D8D9D
:10252000982F917080E060E0492F0E945C0A8D8DA9
:102530008695982F917080E061E0492F0E945C0A97
:102540008D8D86958695982F917080E062E0492F59
:102550000E945C0A8D8D869586958695982F917040
:1025600080E063E0492F0E945C0A80E066E041E081
:102570000E945C0A80E090E0A0E8BFE38B879C8724
:10258000AD87BE876B857C858D859E8520E030E09C
:102590004AEF54E40E941702DC01CB018F83988735
:1025A000A987BA876F81788589859A8520E030E090
:1025B00040E85FE30E941D0488232CF481E090E052
:1025C0009E838D833FC06F81788589859A8520E0C1
:1025D0003FEF4FE757E40E94BD0318164CF56B859B
:1025E0007C858D859E8520E030E040E251E40E94AC
:1025F0001702DC01CB01BC01CD010E944100DC01CE
:10260000CB019E838D830FC088EC90E09C838B83ED
:102610008B819C810197F1F79C838B838D819E81B7
:1026200001979E838D838D819E81009769F714C0E9
:102630006F81788589859A850E944100DC01CB01F4
:102640009E838D838D819E819A83898389819A81DE
:102650000197F1F79A83898380E066E040E00E9469
:102660005C0A6D960FB6F894DEBF0FBECDBFCF915A
:10267000DF910895DF93CF93CDB7DEB72F970FB6D5
:10268000F894DEBF0FBECDBF8F8780E064E041E0ED
:102690000E945C0A80E090E0A0EAB0E48B879C870F
:1026A000AD87BE876B857C858D859E8520E030E07B
:1026B0004AEF54E40E941702DC01CB018F83988714
:1026C000A987BA876F81788589859A8520E030E06F
:1026D00040E85FE30E941D0488232CF481E090E031
:1026E0009E838D833FC06F81788589859A8520E0A0
:1026F0003FEF4FE757E40E94BD0318164CF56B857A
:102700007C858D859E8520E030E040E251E40E948A
:102710001702DC01CB01BC01CD010E944100DC01AC
:10272000CB019E838D830FC088EC90E09C838B83CC
:102730008B819C810197F1F79C838B838D819E8196
:1027400001979E838D838D819E81009769F714C0C8
:102750006F81788589859A850E944100DC01CB01D3
:102760009E838D838D819E819A83898389819A81BD
:102770000197F1F79A8389838F8582958F700E94E4
:102780000D128F850E940D122F960FB6F894DEBFA2
:102790000FBECDBFCF91DF910895DF93CF93CDB71B
:1027A000DEB72F970FB6F894DEBF0FBECDBF8F8771
:1027B00080E064E040E00E945C0A80E090E0A0EAF3
:1027C000B0E48B879C87AD87BE876B857C858D85C4
:1027D0009E8520E030E04AEF54E40E941702DC01BD
:1027E000CB018F839887A987BA876F817885898580
:1027F0009A8520E030E040E85FE30E941D048823D2
:102800002CF481E090E09E838D833FC06F817885BA
:1028100089859A8520E03FEF4FE757E40E94BD038A
:1028200018164CF56B857C858D859E8520E030E003
:1028300040E251E40E941702DC01CB01BC01CD0152
:102840000E944100DC01CB019E838D830FC088EC88
:1028500090E09C838B838B819C810197F1F79C8313
:102860008B838D819E8101979E838D838D819E8137
:10287000009769F714C06F81788589859A850E94D1
:102880004100DC01CB019E838D838D819E819A83E3
:10289000898389819A810197F1F79A8389838F854A
:1028A00082958F700E940D128F850E940D122F96B7
:1028B0000FB6F894DEBF0FBECDBFCF91DF91089564
:1028C000DF93CF9300D00F92CDB7DEB79B838A837F
:1028D00019820EC08981282F30E08A819B81FC01FA
:1028E000E20FF31F80810E943A1389818F5F8983F1
:1028F0008981282F30E08A819B81FC01E20FF31F40
:102900008081882339F70F900F900F90CF91DF913E
:102910000895DF93CF93CDB7DEB781E00E94CD134A
:10292000CF91DF910895DF93CF93CDB7DEB728978E
:102930000FB6F894DEBF0FBECDBF6D837E838F834D
:1029400098878D819E81AF81B8850097A105B105DB
:1029500019F480E30E943A1381E090E0A0E0B0E037
:1029600089839A83AB83BC8340C089819A81AB8180
:10297000BC812AE030E040E050E0BC01CD010E9483
:10298000D417DC01CB0189839A83AB83BC838D810F
:102990009E81AF81B8852AE030E040E050E0BC0184
:1029A000CD010E94F317DC01CB019C01AD018981AF
:1029B0009A81AB81BC81820F931FA41FB51F8983AD
:1029C0009A83AB83BC838D819E81AF81B8852AE0D9
:1029D00030E040E050E0BC01CD010E94F317DA0185
:1029E000C9018D839E83AF83B8878D819E81AF811E
:1029F000B8850097A105B10509F0B7CF23C089813B
:102A00009A81AB81BC812AE030E040E050E0BC011B
:102A1000CD010E94F317DC01CB01805D0E943A13C7
:102A200089819A81AB81BC812AE030E040E050E0AE
:102A3000BC01CD010E94F317DA01C90189839A8391
:102A4000AB83BC8389819A81AB81BC818230910543
:102A5000A105B105A0F628960FB6F894DEBF0FBE0B
:102A6000CDBFCF91DF910895DF93CF9300D0CDB745
:102A7000DEB789836A838981813029F48A8181580C
:102A80000E94CD1307C08981823021F48A818D5143
:102A90000E94CD130F900F90CF91DF910895DF9397
:102AA000CF93CDB7DEB768970FB6F894DEBF0FBEF1
:102AB000CDBF0E94440CCE0101969B878A87E2E934
:102AC000F0E0FD87EC87F3E0FE87EC85FD85008074
:102AD0008C859D8501969D878C87EA85FB85008284
:102AE0008A859B8501969B878A879E8591509E87C4
:102AF000EE85EE2351F7CE010496988B8F87EFE891
:102B0000F0E0FA8BE98BF3E0FB8BE989FA8900802E
:102B100089899A8901969A8B898BEF85F889008239
:102B20008F8598890196988B8F879B8991509B8B75
:102B3000EB89EE2351F7CE0107969D8B8C8BECE849
:102B4000F0E0FF8BEE8BF3E0F88FEE89FF890080D9
:102B50008E899F8901969F8B8E8BEC89FD890082DF
:102B60008C899D8901969D8B8C8B988D9150988F27
:102B7000E88DEE2351F769817A818B810E94120CD6
:102B80006C817D818E810E94120C6F817885898590
:102B90000E94120C82E00E94630682E00E94D1062D
:102BA00082E00E943F070E944706FFCF1F920F92CC
:102BB0000FB60F9211242F933F934F935F936F9310
:102BC0007F938F939F93AF93BF93EF93FF93DF9385
:102BD000CF93CDB7DEB72E97DEBFCDBF0E9489144D
:102BE00081E060E00E94341580E690E00E9460146D
:102BF00080E090E0AAEFB3E48B879C87AD87BE8727
:102C00006B857C858D859E8520E030E04AEF54E41D
:102C10000E941702DC01CB018F839887A987BA87AE
:102C20006F81788589859A8520E030E040E85FE310
:102C30000E941D0488232CF481E090E09E838D8304
:102C40003FC06F81788589859A8520E03FEF4FE707
:102C500057E40E94BD0318164CF56B857C858D8565
:102C60009E8520E030E040E251E40E941702DC0142
:102C7000CB01BC01CD010E944100DC01CB019E8350
:102C80008D830FC088EC90E09C838B838B819C812B
:102C90000197F1F79C838B838D819E8101979E83A1
:102CA0008D838D819E81009769F714C06F8178852F
:102CB00089859A850E944100DC01CB019E838D832A
:102CC0008D819E819A83898389819A810197F1F709
:102CD0009A8389832E96DEBFCDBFCF91DF91FF917E
:102CE000EF91BF91AF919F918F917F916F915F9184
:102CF0004F913F912F910F900FBE0F901F901895FD
:102D00001F920F920FB60F9211242F933F934F9360
:102D10005F936F937F938F939F93AF93BF93EF9343
:102D2000FF93DF93CF93CDB7DEB72E97DEBFCDBF36
:102D30000E94891481E061E00E9434158CE690E0E5
:102D40000E94601480E090E0AAEFB3E48B879C8738
:102D5000AD87BE876B857C858D859E8520E030E0C4
:102D60004AEF54E40E941702DC01CB018F8398875D
:102D7000A987BA876F81788589859A8520E030E0B8
:102D800040E85FE30E941D0488232CF481E090E07A
:102D90009E838D833FC06F81788589859A8520E0E9
:102DA0003FEF4FE757E40E94BD0318164CF56B85C3
:102DB0007C858D859E8520E030E040E251E40E94D4
:102DC0001702DC01CB01BC01CD010E944100DC01F6
:102DD000CB019E838D830FC088EC90E09C838B8316
:102DE0008B819C810197F1F79C838B838D819E81E0
:102DF00001979E838D838D819E81009769F714C012
:102E00006F81788589859A850E944100DC01CB011C
:102E10009E838D838D819E819A83898389819A8106
:102E20000197F1F79A8389832E96DEBFCDBFCF91AC
:102E3000DF91FF91EF91BF91AF919F918F917F9122
:102E40006F915F914F913F912F910F900FBE0F9017
:102E50001F9018951F920F920FB60F9211242F9367
:102E60003F934F935F936F937F938F939F93AF9312
:102E7000BF93EF93FF93DF93CF93CDB7DEB72E973A
:102E8000DEBFCDBF0E94891481E062E00E9434154C
:102E900088E790E00E94601480E090E0AAEFB3E43D
:102EA0008B879C87AD87BE876B857C858D859E854E
:102EB00020E030E04AEF54E40E941702DC01CB012D
:102EC0008F839887A987BA876F81788589859A8546
:102ED00020E030E040E85FE30E941D0488232CF4EA
:102EE00081E090E09E838D833FC06F8178858985E6
:102EF0009A8520E03FEF4FE757E40E94BD03181684
:102F00004CF56B857C858D859E8520E030E040E228
:102F100051E40E941702DC01CB01BC01CD010E94EB
:102F20004100DC01CB019E838D830FC088EC90E0D3
:102F30009C838B838B819C810197F1F79C838B838E
:102F40008D819E8101979E838D838D819E810097C7
:102F500069F714C06F81788589859A850E94410040
:102F6000DC01CB019E838D838D819E819A83898331
:102F700089819A810197F1F79A8389832E96DEBF22
:102F8000CDBFCF91DF91FF91EF91BF91AF919F9115
:102F90008F917F916F915F914F913F912F910F9002
:102FA0000FBE0F901F901895629FD001739FF00184
:102FB000829FE00DF11D649FE00DF11D929FF00DC9
:102FC000839FF00D749FF00D659FF00D9927729F00
:102FD000B00DE11DF91F639FB00DE11DF91FBD018B
:102FE000CF0111240895A1E21A2EAA1BBB1BFD01DB
:102FF0000DC0AA1FBB1FEE1FFF1FA217B307E407D8
:10300000F50720F0A21BB30BE40BF50B661F771F2F
:10301000881F991F1A9469F760957095809590950F
:103020009B01AC01BD01CF0108952F923F924F92B9
:103030005F926F927F928F929F92AF92BF92CF9248
:10304000DF92EF92FF920F931F93CF93DF93CDB751
:10305000DEB7CA1BDB0B0FB6F894DEBF0FBECDBFC9
:1030600009942A88398848885F846E847D848C849A
:103070009B84AA84B984C884DF80EE80FD800C81A3
:103080001B81AA81B981CE0FD11D0FB6F894DEBF86
:0C3090000FBECDBFED010895F894FFCFF6
:10309C004920616D20455854492030004920616D0C
:1030AC0020455854492031004920616D2045585421
:1030BC004920320000000000000000000102010362
:0630CC00030103020100F4
:00000001FF
